{
  "_format": "hh-sol-artifact-1",
  "contractName": "NFT42",
  "sourceName": "contracts/NFT42.sol",
  "abi": [
    {
      "inputs": [],
      "stateMutability": "nonpayable",
      "type": "constructor"
    },
    {
      "inputs": [
        {
          "internalType": "address",
          "name": "sender",
          "type": "address"
        },
        {
          "internalType": "uint256",
          "name": "tokenId",
          "type": "uint256"
        },
        {
          "internalType": "address",
          "name": "owner",
          "type": "address"
        }
      ],
      "name": "ERC721IncorrectOwner",
      "type": "error"
    },
    {
      "inputs": [
        {
          "internalType": "address",
          "name": "operator",
          "type": "address"
        },
        {
          "internalType": "uint256",
          "name": "tokenId",
          "type": "uint256"
        }
      ],
      "name": "ERC721InsufficientApproval",
      "type": "error"
    },
    {
      "inputs": [
        {
          "internalType": "address",
          "name": "approver",
          "type": "address"
        }
      ],
      "name": "ERC721InvalidApprover",
      "type": "error"
    },
    {
      "inputs": [
        {
          "internalType": "address",
          "name": "operator",
          "type": "address"
        }
      ],
      "name": "ERC721InvalidOperator",
      "type": "error"
    },
    {
      "inputs": [
        {
          "internalType": "address",
          "name": "owner",
          "type": "address"
        }
      ],
      "name": "ERC721InvalidOwner",
      "type": "error"
    },
    {
      "inputs": [
        {
          "internalType": "address",
          "name": "receiver",
          "type": "address"
        }
      ],
      "name": "ERC721InvalidReceiver",
      "type": "error"
    },
    {
      "inputs": [
        {
          "internalType": "address",
          "name": "sender",
          "type": "address"
        }
      ],
      "name": "ERC721InvalidSender",
      "type": "error"
    },
    {
      "inputs": [
        {
          "internalType": "uint256",
          "name": "tokenId",
          "type": "uint256"
        }
      ],
      "name": "ERC721NonexistentToken",
      "type": "error"
    },
    {
      "anonymous": false,
      "inputs": [
        {
          "indexed": true,
          "internalType": "address",
          "name": "owner",
          "type": "address"
        },
        {
          "indexed": true,
          "internalType": "address",
          "name": "approved",
          "type": "address"
        },
        {
          "indexed": true,
          "internalType": "uint256",
          "name": "tokenId",
          "type": "uint256"
        }
      ],
      "name": "Approval",
      "type": "event"
    },
    {
      "anonymous": false,
      "inputs": [
        {
          "indexed": true,
          "internalType": "address",
          "name": "owner",
          "type": "address"
        },
        {
          "indexed": true,
          "internalType": "address",
          "name": "operator",
          "type": "address"
        },
        {
          "indexed": false,
          "internalType": "bool",
          "name": "approved",
          "type": "bool"
        }
      ],
      "name": "ApprovalForAll",
      "type": "event"
    },
    {
      "anonymous": false,
      "inputs": [
        {
          "indexed": false,
          "internalType": "uint256",
          "name": "_fromTokenId",
          "type": "uint256"
        },
        {
          "indexed": false,
          "internalType": "uint256",
          "name": "_toTokenId",
          "type": "uint256"
        }
      ],
      "name": "BatchMetadataUpdate",
      "type": "event"
    },
    {
      "anonymous": false,
      "inputs": [
        {
          "indexed": false,
          "internalType": "uint256",
          "name": "_tokenId",
          "type": "uint256"
        }
      ],
      "name": "MetadataUpdate",
      "type": "event"
    },
    {
      "anonymous": false,
      "inputs": [
        {
          "indexed": true,
          "internalType": "address",
          "name": "from",
          "type": "address"
        },
        {
          "indexed": true,
          "internalType": "address",
          "name": "to",
          "type": "address"
        },
        {
          "indexed": true,
          "internalType": "uint256",
          "name": "tokenId",
          "type": "uint256"
        }
      ],
      "name": "Transfer",
      "type": "event"
    },
    {
      "inputs": [
        {
          "internalType": "address",
          "name": "to",
          "type": "address"
        },
        {
          "internalType": "uint256",
          "name": "tokenId",
          "type": "uint256"
        }
      ],
      "name": "approve",
      "outputs": [],
      "stateMutability": "nonpayable",
      "type": "function"
    },
    {
      "inputs": [
        {
          "internalType": "address",
          "name": "owner",
          "type": "address"
        }
      ],
      "name": "balanceOf",
      "outputs": [
        {
          "internalType": "uint256",
          "name": "",
          "type": "uint256"
        }
      ],
      "stateMutability": "view",
      "type": "function"
    },
    {
      "inputs": [
        {
          "internalType": "uint256",
          "name": "tokenId",
          "type": "uint256"
        }
      ],
      "name": "getApproved",
      "outputs": [
        {
          "internalType": "address",
          "name": "",
          "type": "address"
        }
      ],
      "stateMutability": "view",
      "type": "function"
    },
    {
      "inputs": [
        {
          "internalType": "address",
          "name": "owner",
          "type": "address"
        },
        {
          "internalType": "address",
          "name": "operator",
          "type": "address"
        }
      ],
      "name": "isApprovedForAll",
      "outputs": [
        {
          "internalType": "bool",
          "name": "",
          "type": "bool"
        }
      ],
      "stateMutability": "view",
      "type": "function"
    },
    {
      "inputs": [
        {
          "internalType": "address",
          "name": "to",
          "type": "address"
        },
        {
          "internalType": "string",
          "name": "tokenURI",
          "type": "string"
        }
      ],
      "name": "mint",
      "outputs": [],
      "stateMutability": "nonpayable",
      "type": "function"
    },
    {
      "inputs": [],
      "name": "name",
      "outputs": [
        {
          "internalType": "string",
          "name": "",
          "type": "string"
        }
      ],
      "stateMutability": "view",
      "type": "function"
    },
    {
      "inputs": [
        {
          "internalType": "uint256",
          "name": "tokenId",
          "type": "uint256"
        }
      ],
      "name": "ownerOf",
      "outputs": [
        {
          "internalType": "address",
          "name": "",
          "type": "address"
        }
      ],
      "stateMutability": "view",
      "type": "function"
    },
    {
      "inputs": [
        {
          "internalType": "address",
          "name": "from",
          "type": "address"
        },
        {
          "internalType": "address",
          "name": "to",
          "type": "address"
        },
        {
          "internalType": "uint256",
          "name": "tokenId",
          "type": "uint256"
        }
      ],
      "name": "safeTransferFrom",
      "outputs": [],
      "stateMutability": "nonpayable",
      "type": "function"
    },
    {
      "inputs": [
        {
          "internalType": "address",
          "name": "from",
          "type": "address"
        },
        {
          "internalType": "address",
          "name": "to",
          "type": "address"
        },
        {
          "internalType": "uint256",
          "name": "tokenId",
          "type": "uint256"
        },
        {
          "internalType": "bytes",
          "name": "data",
          "type": "bytes"
        }
      ],
      "name": "safeTransferFrom",
      "outputs": [],
      "stateMutability": "nonpayable",
      "type": "function"
    },
    {
      "inputs": [
        {
          "internalType": "address",
          "name": "operator",
          "type": "address"
        },
        {
          "internalType": "bool",
          "name": "approved",
          "type": "bool"
        }
      ],
      "name": "setApprovalForAll",
      "outputs": [],
      "stateMutability": "nonpayable",
      "type": "function"
    },
    {
      "inputs": [
        {
          "internalType": "bytes4",
          "name": "interfaceId",
          "type": "bytes4"
        }
      ],
      "name": "supportsInterface",
      "outputs": [
        {
          "internalType": "bool",
          "name": "",
          "type": "bool"
        }
      ],
      "stateMutability": "view",
      "type": "function"
    },
    {
      "inputs": [],
      "name": "symbol",
      "outputs": [
        {
          "internalType": "string",
          "name": "",
          "type": "string"
        }
      ],
      "stateMutability": "view",
      "type": "function"
    },
    {
      "inputs": [],
      "name": "tokenId",
      "outputs": [
        {
          "internalType": "uint256",
          "name": "",
          "type": "uint256"
        }
      ],
      "stateMutability": "view",
      "type": "function"
    },
    {
      "inputs": [
        {
          "internalType": "uint256",
          "name": "tokenId",
          "type": "uint256"
        }
      ],
      "name": "tokenURI",
      "outputs": [
        {
          "internalType": "string",
          "name": "",
          "type": "string"
        }
      ],
      "stateMutability": "view",
      "type": "function"
    },
    {
      "inputs": [
        {
          "internalType": "address",
          "name": "from",
          "type": "address"
        },
        {
          "internalType": "address",
          "name": "to",
          "type": "address"
        },
        {
          "internalType": "uint256",
          "name": "tokenId",
          "type": "uint256"
        }
      ],
      "name": "transferFrom",
      "outputs": [],
      "stateMutability": "nonpayable",
      "type": "function"
    }
  ],
  "bytecode": "0x608060405234801561001057600080fd5b506040518060400160405280600581526020017f4e465434320000000000000000000000000000000000000000000000000000008152506040518060400160405280600581526020017f4e46543432000000000000000000000000000000000000000000000000000000815250816000908161008c91906102fc565b50806001908161009c91906102fc565b50505060006007819055506103ce565b600081519050919050565b7f4e487b7100000000000000000000000000000000000000000000000000000000600052604160045260246000fd5b7f4e487b7100000000000000000000000000000000000000000000000000000000600052602260045260246000fd5b6000600282049050600182168061012d57607f821691505b6020821081036101405761013f6100e6565b5b50919050565b60008190508160005260206000209050919050565b60006020601f8301049050919050565b600082821b905092915050565b6000600883026101a87fffffffffffffffffffffffffffffffffffffffffffffffffffffffffffffffff8261016b565b6101b2868361016b565b95508019841693508086168417925050509392505050565b6000819050919050565b6000819050919050565b60006101f96101f46101ef846101ca565b6101d4565b6101ca565b9050919050565b6000819050919050565b610213836101de565b61022761021f82610200565b848454610178565b825550505050565b600090565b61023c61022f565b61024781848461020a565b505050565b5b8181101561026b57610260600082610234565b60018101905061024d565b5050565b601f8211156102b05761028181610146565b61028a8461015b565b81016020851015610299578190505b6102ad6102a58561015b565b83018261024c565b50505b505050565b600082821c905092915050565b60006102d3600019846008026102b5565b1980831691505092915050565b60006102ec83836102c2565b9150826002028217905092915050565b610305826100ac565b67ffffffffffffffff81111561031e5761031d6100b7565b5b6103288254610115565b61033382828561026f565b600060209050601f8311600181146103665760008415610354578287015190505b61035e85826102e0565b8655506103c6565b601f19841661037486610146565b60005b8281101561039c57848901518255600182019150602085019450602081019050610377565b868310156103b957848901516103b5601f8916826102c2565b8355505b6001600288020188555050505b505050505050565b6123be806103dd6000396000f3fe608060405234801561001057600080fd5b50600436106100f55760003560e01c80636352211e11610097578063b88d4fde11610066578063b88d4fde14610284578063c87b56dd146102a0578063d0def521146102d0578063e985e9c5146102ec576100f5565b80636352211e146101ea57806370a082311461021a57806395d89b411461024a578063a22cb46514610268576100f5565b8063095ea7b3116100d3578063095ea7b31461017857806317d70f7c1461019457806323b872dd146101b257806342842e0e146101ce576100f5565b806301ffc9a7146100fa57806306fdde031461012a578063081812fc14610148575b600080fd5b610114600480360381019061010f919061182a565b61031c565b6040516101219190611872565b60405180910390f35b61013261037d565b60405161013f919061191d565b60405180910390f35b610162600480360381019061015d9190611975565b61040f565b60405161016f91906119e3565b60405180910390f35b610192600480360381019061018d9190611a2a565b61042b565b005b61019c610441565b6040516101a99190611a79565b60405180910390f35b6101cc60048036038101906101c79190611a94565b610447565b005b6101e860048036038101906101e39190611a94565b610549565b005b61020460048036038101906101ff9190611975565b610569565b60405161021191906119e3565b60405180910390f35b610234600480360381019061022f9190611ae7565b61057b565b6040516102419190611a79565b60405180910390f35b610252610635565b60405161025f919061191d565b60405180910390f35b610282600480360381019061027d9190611b40565b6106c7565b005b61029e60048036038101906102999190611cb5565b6106dd565b005b6102ba60048036038101906102b59190611975565b610702565b6040516102c7919061191d565b60405180910390f35b6102ea60048036038101906102e59190611dd9565b610815565b005b61030660048036038101906103019190611e35565b610848565b6040516103139190611872565b60405180910390f35b6000634906490660e01b7bffffffffffffffffffffffffffffffffffffffffffffffffffffffff1916827bffffffffffffffffffffffffffffffffffffffffffffffffffffffff191614806103765750610375826108dc565b5b9050919050565b60606000805461038c90611ea4565b80601f01602080910402602001604051908101604052809291908181526020018280546103b890611ea4565b80156104055780601f106103da57610100808354040283529160200191610405565b820191906000526020600020905b8154815290600101906020018083116103e857829003601f168201915b5050505050905090565b600061041a826109be565b5061042482610a46565b9050919050565b61043d8282610438610a83565b610a8b565b5050565b60075481565b600073ffffffffffffffffffffffffffffffffffffffff168273ffffffffffffffffffffffffffffffffffffffff16036104b95760006040517f64a0ae920000000000000000000000000000000000000000000000000000000081526004016104b091906119e3565b60405180910390fd5b60006104cd83836104c8610a83565b610a9d565b90508373ffffffffffffffffffffffffffffffffffffffff168173ffffffffffffffffffffffffffffffffffffffff1614610543578382826040517f64283d7b00000000000000000000000000000000000000000000000000000000815260040161053a93929190611ed5565b60405180910390fd5b50505050565b610564838383604051806020016040528060008152506106dd565b505050565b6000610574826109be565b9050919050565b60008073ffffffffffffffffffffffffffffffffffffffff168273ffffffffffffffffffffffffffffffffffffffff16036105ee5760006040517f89c62b640000000000000000000000000000000000000000000000000000000081526004016105e591906119e3565b60405180910390fd5b600360008373ffffffffffffffffffffffffffffffffffffffff1673ffffffffffffffffffffffffffffffffffffffff168152602001908152602001600020549050919050565b60606001805461064490611ea4565b80601f016020809104026020016040519081016040528092919081815260200182805461067090611ea4565b80156106bd5780601f10610692576101008083540402835291602001916106bd565b820191906000526020600020905b8154815290600101906020018083116106a057829003601f168201915b5050505050905090565b6106d96106d2610a83565b8383610cb7565b5050565b6106e8848484610447565b6106fc6106f3610a83565b85858585610e26565b50505050565b606061070d826109be565b50600060066000848152602001908152602001600020805461072e90611ea4565b80601f016020809104026020016040519081016040528092919081815260200182805461075a90611ea4565b80156107a75780601f1061077c576101008083540402835291602001916107a7565b820191906000526020600020905b81548152906001019060200180831161078a57829003601f168201915b5050505050905060006107b8610fd7565b905060008151036107cd578192505050610810565b6000825111156108025780826040516020016107ea929190611f48565b60405160208183030381529060405292505050610810565b61080b84610fee565b925050505b919050565b600060016007546108269190611f9b565b9050806007819055506108398183611057565b61084383826110b3565b505050565b6000600560008473ffffffffffffffffffffffffffffffffffffffff1673ffffffffffffffffffffffffffffffffffffffff16815260200190815260200160002060008373ffffffffffffffffffffffffffffffffffffffff1673ffffffffffffffffffffffffffffffffffffffff16815260200190815260200160002060009054906101000a900460ff16905092915050565b60007f80ac58cd000000000000000000000000000000000000000000000000000000007bffffffffffffffffffffffffffffffffffffffffffffffffffffffff1916827bffffffffffffffffffffffffffffffffffffffffffffffffffffffff191614806109a757507f5b5e139f000000000000000000000000000000000000000000000000000000007bffffffffffffffffffffffffffffffffffffffffffffffffffffffff1916827bffffffffffffffffffffffffffffffffffffffffffffffffffffffff1916145b806109b757506109b6826111ac565b5b9050919050565b6000806109ca83611216565b9050600073ffffffffffffffffffffffffffffffffffffffff168173ffffffffffffffffffffffffffffffffffffffff1603610a3d57826040517f7e273289000000000000000000000000000000000000000000000000000000008152600401610a349190611a79565b60405180910390fd5b80915050919050565b60006004600083815260200190815260200160002060009054906101000a900473ffffffffffffffffffffffffffffffffffffffff169050919050565b600033905090565b610a988383836001611253565b505050565b600080610aa984611216565b9050600073ffffffffffffffffffffffffffffffffffffffff168373ffffffffffffffffffffffffffffffffffffffff1614610aeb57610aea818486611418565b5b600073ffffffffffffffffffffffffffffffffffffffff168173ffffffffffffffffffffffffffffffffffffffff1614610b7c57610b2d600085600080611253565b6001600360008373ffffffffffffffffffffffffffffffffffffffff1673ffffffffffffffffffffffffffffffffffffffff168152602001908152602001600020600082825403925050819055505b600073ffffffffffffffffffffffffffffffffffffffff168573ffffffffffffffffffffffffffffffffffffffff1614610bff576001600360008773ffffffffffffffffffffffffffffffffffffffff1673ffffffffffffffffffffffffffffffffffffffff168152602001908152602001600020600082825401925050819055505b846002600086815260200190815260200160002060006101000a81548173ffffffffffffffffffffffffffffffffffffffff021916908373ffffffffffffffffffffffffffffffffffffffff160217905550838573ffffffffffffffffffffffffffffffffffffffff168273ffffffffffffffffffffffffffffffffffffffff167fddf252ad1be2c89b69c2b068fc378daa952ba7f163c4a11628f55a4df523b3ef60405160405180910390a4809150509392505050565b600073ffffffffffffffffffffffffffffffffffffffff168273ffffffffffffffffffffffffffffffffffffffff1603610d2857816040517f5b08ba18000000000000000000000000000000000000000000000000000000008152600401610d1f91906119e3565b60405180910390fd5b80600560008573ffffffffffffffffffffffffffffffffffffffff1673ffffffffffffffffffffffffffffffffffffffff16815260200190815260200160002060008473ffffffffffffffffffffffffffffffffffffffff1673ffffffffffffffffffffffffffffffffffffffff16815260200190815260200160002060006101000a81548160ff0219169083151502179055508173ffffffffffffffffffffffffffffffffffffffff168373ffffffffffffffffffffffffffffffffffffffff167f17307eab39ab6107e8899845ad3d59bd9653f200f220920489ca2b5937696c3183604051610e199190611872565b60405180910390a3505050565b60008373ffffffffffffffffffffffffffffffffffffffff163b1115610fd0578273ffffffffffffffffffffffffffffffffffffffff1663150b7a02868685856040518563ffffffff1660e01b8152600401610e859493929190612024565b6020604051808303816000875af1925050508015610ec157506040513d601f19601f82011682018060405250810190610ebe9190612085565b60015b610f45573d8060008114610ef1576040519150601f19603f3d011682016040523d82523d6000602084013e610ef6565b606091505b506000815103610f3d57836040517f64a0ae92000000000000000000000000000000000000000000000000000000008152600401610f3491906119e3565b60405180910390fd5b805181602001fd5b63150b7a0260e01b7bffffffffffffffffffffffffffffffffffffffffffffffffffffffff1916817bffffffffffffffffffffffffffffffffffffffffffffffffffffffff191614610fce57836040517f64a0ae92000000000000000000000000000000000000000000000000000000008152600401610fc591906119e3565b60405180910390fd5b505b5050505050565b606060405180602001604052806000815250905090565b6060610ff9826109be565b506000611004610fd7565b90506000815111611024576040518060200160405280600081525061104f565b8061102e846114dc565b60405160200161103f929190611f48565b6040516020818303038152906040525b915050919050565b80600660008481526020019081526020016000209081611077919061225e565b507ff8e1a15aba9398e019f0b49df1a4fde98ee17ae345cb5f6b5e2c27f5033e8ce7826040516110a79190611a79565b60405180910390a15050565b600073ffffffffffffffffffffffffffffffffffffffff168273ffffffffffffffffffffffffffffffffffffffff16036111255760006040517f64a0ae9200000000000000000000000000000000000000000000000000000000815260040161111c91906119e3565b60405180910390fd5b600061113383836000610a9d565b9050600073ffffffffffffffffffffffffffffffffffffffff168173ffffffffffffffffffffffffffffffffffffffff16146111a75760006040517f73c6ac6e00000000000000000000000000000000000000000000000000000000815260040161119e91906119e3565b60405180910390fd5b505050565b60007f01ffc9a7000000000000000000000000000000000000000000000000000000007bffffffffffffffffffffffffffffffffffffffffffffffffffffffff1916827bffffffffffffffffffffffffffffffffffffffffffffffffffffffff1916149050919050565b60006002600083815260200190815260200160002060009054906101000a900473ffffffffffffffffffffffffffffffffffffffff169050919050565b808061128c5750600073ffffffffffffffffffffffffffffffffffffffff168273ffffffffffffffffffffffffffffffffffffffff1614155b156113c057600061129c846109be565b9050600073ffffffffffffffffffffffffffffffffffffffff168373ffffffffffffffffffffffffffffffffffffffff161415801561130757508273ffffffffffffffffffffffffffffffffffffffff168173ffffffffffffffffffffffffffffffffffffffff1614155b801561131a57506113188184610848565b155b1561135c57826040517fa9fbf51f00000000000000000000000000000000000000000000000000000000815260040161135391906119e3565b60405180910390fd5b81156113be57838573ffffffffffffffffffffffffffffffffffffffff168273ffffffffffffffffffffffffffffffffffffffff167f8c5be1e5ebec7d5bd14f71427d1e84f3dd0314c0f7b2291e5b200ac8c7c3b92560405160405180910390a45b505b836004600085815260200190815260200160002060006101000a81548173ffffffffffffffffffffffffffffffffffffffff021916908373ffffffffffffffffffffffffffffffffffffffff16021790555050505050565b6114238383836115aa565b6114d757600073ffffffffffffffffffffffffffffffffffffffff168373ffffffffffffffffffffffffffffffffffffffff160361149857806040517f7e27328900000000000000000000000000000000000000000000000000000000815260040161148f9190611a79565b60405180910390fd5b81816040517f177e802f0000000000000000000000000000000000000000000000000000000081526004016114ce929190612330565b60405180910390fd5b505050565b6060600060016114eb8461166b565b01905060008167ffffffffffffffff81111561150a57611509611b8a565b5b6040519080825280601f01601f19166020018201604052801561153c5781602001600182028036833780820191505090505b509050600082602001820190505b60011561159f578080600190039150507f3031323334353637383961626364656600000000000000000000000000000000600a86061a8153600a858161159357611592612359565b5b0494506000850361154a575b819350505050919050565b60008073ffffffffffffffffffffffffffffffffffffffff168373ffffffffffffffffffffffffffffffffffffffff161415801561166257508273ffffffffffffffffffffffffffffffffffffffff168473ffffffffffffffffffffffffffffffffffffffff16148061162357506116228484610848565b5b8061166157508273ffffffffffffffffffffffffffffffffffffffff1661164983610a46565b73ffffffffffffffffffffffffffffffffffffffff16145b5b90509392505050565b600080600090507a184f03e93ff9f4daa797ed6e38ed64bf6a1f01000000000000000083106116c9577a184f03e93ff9f4daa797ed6e38ed64bf6a1f01000000000000000083816116bf576116be612359565b5b0492506040810190505b6d04ee2d6d415b85acef81000000008310611706576d04ee2d6d415b85acef810000000083816116fc576116fb612359565b5b0492506020810190505b662386f26fc10000831061173557662386f26fc10000838161172b5761172a612359565b5b0492506010810190505b6305f5e100831061175e576305f5e100838161175457611753612359565b5b0492506008810190505b612710831061178357612710838161177957611778612359565b5b0492506004810190505b606483106117a6576064838161179c5761179b612359565b5b0492506002810190505b600a83106117b5576001810190505b80915050919050565b6000604051905090565b600080fd5b600080fd5b60007fffffffff0000000000000000000000000000000000000000000000000000000082169050919050565b611807816117d2565b811461181257600080fd5b50565b600081359050611824816117fe565b92915050565b6000602082840312156118405761183f6117c8565b5b600061184e84828501611815565b91505092915050565b60008115159050919050565b61186c81611857565b82525050565b60006020820190506118876000830184611863565b92915050565b600081519050919050565b600082825260208201905092915050565b60005b838110156118c75780820151818401526020810190506118ac565b60008484015250505050565b6000601f19601f8301169050919050565b60006118ef8261188d565b6118f98185611898565b93506119098185602086016118a9565b611912816118d3565b840191505092915050565b6000602082019050818103600083015261193781846118e4565b905092915050565b6000819050919050565b6119528161193f565b811461195d57600080fd5b50565b60008135905061196f81611949565b92915050565b60006020828403121561198b5761198a6117c8565b5b600061199984828501611960565b91505092915050565b600073ffffffffffffffffffffffffffffffffffffffff82169050919050565b60006119cd826119a2565b9050919050565b6119dd816119c2565b82525050565b60006020820190506119f860008301846119d4565b92915050565b611a07816119c2565b8114611a1257600080fd5b50565b600081359050611a24816119fe565b92915050565b60008060408385031215611a4157611a406117c8565b5b6000611a4f85828601611a15565b9250506020611a6085828601611960565b9150509250929050565b611a738161193f565b82525050565b6000602082019050611a8e6000830184611a6a565b92915050565b600080600060608486031215611aad57611aac6117c8565b5b6000611abb86828701611a15565b9350506020611acc86828701611a15565b9250506040611add86828701611960565b9150509250925092565b600060208284031215611afd57611afc6117c8565b5b6000611b0b84828501611a15565b91505092915050565b611b1d81611857565b8114611b2857600080fd5b50565b600081359050611b3a81611b14565b92915050565b60008060408385031215611b5757611b566117c8565b5b6000611b6585828601611a15565b9250506020611b7685828601611b2b565b9150509250929050565b600080fd5b600080fd5b7f4e487b7100000000000000000000000000000000000000000000000000000000600052604160045260246000fd5b611bc2826118d3565b810181811067ffffffffffffffff82111715611be157611be0611b8a565b5b80604052505050565b6000611bf46117be565b9050611c008282611bb9565b919050565b600067ffffffffffffffff821115611c2057611c1f611b8a565b5b611c29826118d3565b9050602081019050919050565b82818337600083830152505050565b6000611c58611c5384611c05565b611bea565b905082815260208101848484011115611c7457611c73611b85565b5b611c7f848285611c36565b509392505050565b600082601f830112611c9c57611c9b611b80565b5b8135611cac848260208601611c45565b91505092915050565b60008060008060808587031215611ccf57611cce6117c8565b5b6000611cdd87828801611a15565b9450506020611cee87828801611a15565b9350506040611cff87828801611960565b925050606085013567ffffffffffffffff811115611d2057611d1f6117cd565b5b611d2c87828801611c87565b91505092959194509250565b600067ffffffffffffffff821115611d5357611d52611b8a565b5b611d5c826118d3565b9050602081019050919050565b6000611d7c611d7784611d38565b611bea565b905082815260208101848484011115611d9857611d97611b85565b5b611da3848285611c36565b509392505050565b600082601f830112611dc057611dbf611b80565b5b8135611dd0848260208601611d69565b91505092915050565b60008060408385031215611df057611def6117c8565b5b6000611dfe85828601611a15565b925050602083013567ffffffffffffffff811115611e1f57611e1e6117cd565b5b611e2b85828601611dab565b9150509250929050565b60008060408385031215611e4c57611e4b6117c8565b5b6000611e5a85828601611a15565b9250506020611e6b85828601611a15565b9150509250929050565b7f4e487b7100000000000000000000000000000000000000000000000000000000600052602260045260246000fd5b60006002820490506001821680611ebc57607f821691505b602082108103611ecf57611ece611e75565b5b50919050565b6000606082019050611eea60008301866119d4565b611ef76020830185611a6a565b611f0460408301846119d4565b949350505050565b600081905092915050565b6000611f228261188d565b611f2c8185611f0c565b9350611f3c8185602086016118a9565b80840191505092915050565b6000611f548285611f17565b9150611f608284611f17565b91508190509392505050565b7f4e487b7100000000000000000000000000000000000000000000000000000000600052601160045260246000fd5b6000611fa68261193f565b9150611fb18361193f565b9250828201905080821115611fc957611fc8611f6c565b5b92915050565b600081519050919050565b600082825260208201905092915050565b6000611ff682611fcf565b6120008185611fda565b93506120108185602086016118a9565b612019816118d3565b840191505092915050565b600060808201905061203960008301876119d4565b61204660208301866119d4565b6120536040830185611a6a565b81810360608301526120658184611feb565b905095945050505050565b60008151905061207f816117fe565b92915050565b60006020828403121561209b5761209a6117c8565b5b60006120a984828501612070565b91505092915050565b60008190508160005260206000209050919050565b60006020601f8301049050919050565b600082821b905092915050565b6000600883026121147fffffffffffffffffffffffffffffffffffffffffffffffffffffffffffffffff826120d7565b61211e86836120d7565b95508019841693508086168417925050509392505050565b6000819050919050565b600061215b6121566121518461193f565b612136565b61193f565b9050919050565b6000819050919050565b61217583612140565b61218961218182612162565b8484546120e4565b825550505050565b600090565b61219e612191565b6121a981848461216c565b505050565b5b818110156121cd576121c2600082612196565b6001810190506121af565b5050565b601f821115612212576121e3816120b2565b6121ec846120c7565b810160208510156121fb578190505b61220f612207856120c7565b8301826121ae565b50505b505050565b600082821c905092915050565b600061223560001984600802612217565b1980831691505092915050565b600061224e8383612224565b9150826002028217905092915050565b6122678261188d565b67ffffffffffffffff8111156122805761227f611b8a565b5b61228a8254611ea4565b6122958282856121d1565b600060209050601f8311600181146122c857600084156122b6578287015190505b6122c08582612242565b865550612328565b601f1984166122d6866120b2565b60005b828110156122fe578489015182556001820191506020850194506020810190506122d9565b8683101561231b5784890151612317601f891682612224565b8355505b6001600288020188555050505b505050505050565b600060408201905061234560008301856119d4565b6123526020830184611a6a565b9392505050565b7f4e487b7100000000000000000000000000000000000000000000000000000000600052601260045260246000fdfea2646970667358221220d3464caecc51a4bb8f057cfee2c1fd5b11c984dd934568d1e7ef7c69312f8cbc64736f6c634300081c0033",
  "linkReferences": {},
  "deployedLinkReferences": {}
}